S01900007465737430332D696E74722D74696D65722E73726563B0
S113000045C0000060C000005EC000005CC000008D
S11300105AC0000090C10000BBC10000E3C1000051
S113002052C0000050C000004EC000004CC0000090
S11300304AC0000048C0000046C0000044C00000A0
S113004042C0000040C000003EC000003CC00000B0
S11300503AC0000038C0000036C0000034C00000C0
S113006032C0000030C000002EC000002CC00000D0
S11300702AC0000028C0000026C0000024C00000E0
S113008022C0000020C000001EC0000011241FBEBA
S1130090CFEFD0E1DEBFCDBF11E0A0E0B1E0E8E4F6
S11300A0F4E000E00BBF02C007900D92A231B1074B
S11300B0D9F721E0A2E1B1E001C01D92AB31B20752
S11300C0E1F7B6D0BFC19CCF93B19F6093B993B110
S11300D021E030E002C0220F331F8A95E2F7209519
S11300E0292323B962BB8FE19EE40197F1F700C095
S11300F0000008950F931F93CF93DF938C01C0E00A
S1130100D0E007C0F801EC0FFD1F6081CE01DCDFF9
S11301102196C430D105B4F3DF91CF911F910F9193
S113012008954F925F926F927F928F929F92AF92B7
S1130130BF92CF92DF92EF92FF920F931F93CF93D0
S1130140DF936B017C010F2EFAE04F2E512C612CB2
S1130150712CF02DA301920153D14B015C01CA0112
S1130160B901A30192014CD18B01C701B60124E668
S113017030E040E050E044D1CA01B901A30192014A
S11301803FD1EB01C701B60128EE33E040E050E077
S113019037D188EEC81683E0D806E104F104D0F420
S11301A084E6C816D104E104F10458F48AE0C816C0
S11301B0D104E104F10440F021E130E0C1E1D0E0F8
S11301C009C021E130E006C021E130E0C1E1D0E026
S11301D001E110E0F401E050FF4F8081E6E1F1E03D
S11301E08083D801A050BF4F8C918183C050DF4FD2
S11301F088818283D901A050BF4F8C9183838091E1
S1130200140190911501049711F0CF0173DFDF9170
S1130210CF911F910F91FF90EF90DF90CF90BF90FF
S1130220AF909F908F907F906F905F904F900895C4
S11302308FEF81BB82B18F6082B98AB38F608ABB32
S113024080E789BF8AE28ABF8FB780688FBF7894BE
S1130250C12CD12C7601809114019091150181302B
S1130260910559F024F4892B09F45EC060C08330F1
S11302709105F9F0049771F15AC021E0C21AD1082E
S1130280E108F1083FEFC316D306E306F30621F4B1
S11302901092150110921401C114D104E104F10467
S11302A009F045C084E090E0909315018093140117
S11302B03EC08FEFC81AD80AE80AF80A90E1C916B6
S11302C097E2D906E104F10490F11092150110921D
S11302D014012DC08FE08BBB2FEF30E792E021504B
S11302E030409040E1F700C000001BBA2FEF30E728
S11302F092E0215030409040E1F700C000008BBBF9
S11303002FEF30E782E0215030408040E1F700C019
S113031000001BBA9FEF20E732E0915020403040AC
S1130320E1F700C0000003C0C12CD12C7601C70145
S1130330B601F7DE90CF1F920F920FB60F921124E1
S11303408F939F938091140190911501019690933E
S11303501501809314018091140190911501059762
S113036021F41092150110921401809114019091BE
S11303701501039734F081E090E090931501809388
S113038014019F918F910F900FBE0F901F9018959D
S11303901F920F920FB60F9211248F939F93809107
S11303A0120190911301019690931301809312010D
S11303B08091120190911301029724F0109213017D
S11303C01092120180911201909113010296909360
S11303D01501809314019F918F910F900FBE0F9080
S11303E01F9018951F920F920FB60F92112410921E
S11303F01501109214010F900FBE0F901F901895C5
S1130400A1E21A2EAA1BBB1BFD010DC0AA1FBB1F14
S1130410EE1FFF1FA217B307E407F50720F0A21B86
S1130420B30BE40BF50B661F771F881F991F1A94F3
S113043069F760957095809590959B01AC01BD011D
S10B0440CF010895F894FFCFE9
S11304483F065B4F666D7D277F6F777C585E7971B9
S1050458C000DE
S9030000FC
