S0180000377365672D62746E2D6578616D706C652E737265630C
S113000045C0000060C000005EC000005CC000008D
S11300105AC0000058C0000056C0000054C0000080
S113002052C0000050C000004EC000004CC0000090
S11300304AC0000048C0000046C0000044C00000A0
S113004042C0000040C000003EC000003CC00000B0
S11300503AC0000038C0000036C0000034C00000C0
S113006032C0000030C000002EC000002CC00000D0
S11300702AC0000028C0000026C0000024C00000E0
S113008022C0000020C000001EC0000011241FBEBA
S1130090CFEFD0E1DEBFCDBF11E0A0E0B1E0ECEAEC
S11300A0F2E000E00BBF02C007900D92A231B1074D
S11300B0D9F721E0A2E1B1E001C01D92A731B20756
S11300C0E1F798D0F1C09CCF93B19F6093B993B1FD
S11300D021E030E002C0220F331F8A95E2F7209519
S11300E0292323B962BB8FE19EE40197F1F700C095
S11300F0000008950F931F93CF93DF938C01C0E00A
S1130100D0E007C0F801EC0FFD1F6081CE01DCDFF9
S11301102196C430D105B4F3DF91CF911F910F9193
S113012008950F931F93CF93DB01AF70BB278B010F
S11301309C01689413F8369527951795079516949E
S1130140D1F7F801EF70FF27072F182F292F332736
S1130150A8014F7055278B019C010F2EFCE03695AA
S1130160279517950795FA95D1F7F02D9801611504
S1130170C0E17C0781059105C8F46F3F71058105D5
S1130180910509F050F4603171058105910540F045
S113019021E130E041E150E009C021E130E006C056
S11301A021E130E041E150E0E1E1F0E0A050BF4F57
S11301B08C91A2E1B1E08C93E050FF4F80811196C5
S11301C08C931197FA01E050FF4F808112968C9323
S11301D01297F901E050FF4F808113968C93139787
S11301E0CD01CF911F910F91089513B88091100103
S11301F082BB08958FEF81BB8FE082B987B38E7F76
S113020087BBF3DFC0E0D0E0C12CD12C760106C05F
S1130210C0E0D0E003C0C12CD12C7601B0991EC03F
S11302202FEF83EC99E0215080409040E1F700C02B
S11302300000C130D10531F0C230D10531F0209732
S113024069F40AC0C2E0D0E009C0CFDFC0E0D0E06A
S1130250C12CD12C760102C0C1E0D0E0C130D1055F
S113026021F0C230D105E1F0D3CF460157012FEF81
S1130270821A920AA20AB20AC701B60152DF3ADF11
S11302808FE99FE00197F1F700C000008114910409
S113029091E0A906B10408F0BECF75016401BECF98
S10F02A082E191E027DFBACFF894FFCF91
S11302AC3F065B4F666D7D277F6F777C585E797157
S10502BCC0007C
S9030000FC
